:020000040800F2
:10000000FCBF002009310000013100000131000077
:100010000131000001310000013100000131000018
:100020000131000001310000013100000131000008
:1000300001310000013100000131000001310000F8
:1000400001310000013100000131000001310000E8
:1000500001310000013100000131000001310000D8
:1000600001310000013100000131000001310000C8
:1000700001310000013100000131000001310000B8
:1000800001310000013100000131000001310000A8
:100090000131000001310000013100000131000098
:1000A0000131000001310000013100000131000088
:1000B0000131000001310000013100000131000078
:1000C0000131000001310000013100000131000068
:1000D0000131000001310000013100000131000058
:1000E0000131000001310000013100000131000048
:1000F0000131000001310000013100000131000038
:100100000131000001310000013100000131000027
:100110000131000001310000013100000131000017
:100120000131000001310000013100000131000007
:10013000B1F9002013B2B0F900200A8003807047A3
:1001400083B0CDF800E000F0FF031A09104603F079
:100150000F02134614E0194A02921FE0184A029255
:100160001CE0184A029219E0174A029216E0174A58
:10017000029213E0164A029210E0164A02920DE033
:100180000028E8D00128E9D00228EAD00328EBD0E3
:100190000428ECD00528EDD00628EED0012212B2BA
:1001A0009A40ADF8042002980A46BDF8041000F009
:1001B000B5F9DDF800E003B0704700BF000801406A
:1001C000000C0140001001400014014000180140E3
:1001D000001C01400020014083B0CDF800E0ADF8E4
:1001E0000400ADF8081002AB01AA19461046FFF74B
:1001F0009FFFBDF9083040F23F1212B2D21AADF89B
:100200000820BDF904104E2000F026FDBDF90810AD
:100210004F2000F021FD0021222000F023F9DDF81D
:1002200000E003B07047FFFF81B0CDF800E001228D
:1002300052B23E490A6000F268010B686FF000613B
:1002400003EA0102144603F00061C90E0B4602F0F6
:100250000041B1F1004F02D135490A6801E035494A
:100260000A6804F47021090C0E464FF6FF7104EA87
:1002700001010D4604F44011B1F5401F0DD16FF09E
:10028000706102EA01010E462A490A686FF0706146
:100290000A4028490A60324616E004F48011B1F59C
:1002A000801F09D14FF00301B140C94302EA0101A7
:1002B00041F070610A4607E0610D090105FA01F19C
:1002C000C9430A4042F070622BB1610D090105FA81
:1002D00001F10A43FFE704F00041B1F1004F02D100
:1002E00013490A6001E013490A6040F2000A81469E
:1002F0004FEA8A0109EB01010968B1F1FF3F10D013
:1003000009F134014FEA8A03C91809680A4609EB62
:100310000301096808461146FFF712FF0AF1010AB6
:10032000E6E7DDF800E001B0704700BF000342429D
:100330001C0001400400014081B0CDF800E096B2FD
:10034000DFB200256DB20E4C256009B200B2FFF796
:1003500043FF0020FDB287B205FB05F424B2A7429B
:1003600006D20121B0B200F07DF87F1CBFB2F3E7E6
:1003700001256DB2024C2560DDF800E001B0704748
:100380009801224281B0FAB590EA02064CBF4FF0C4
:1003900000464FF00006010243001B0E12BF41F061
:1003A00000414FF000003BE0FF2B35D05FEA022414
:1003B0005FEA42055FEA156511BF44F000444FF063
:1003C000FF4030432CE0FF2D26D05B1B0020202770
:1003D00064084908A14240EB000028BF091B7F1EAA
:1003E00004D0002918BF4900F4D1B84010F0004FE4
:1003F00004BF4000B3F1010380302CBF5B1C400000
:100400007F33DCBF4FF000000AE0FF2B04D2400A2C
:1004100040EAC350304303E0FF27FF0556EA0700D8
:10042000BDE8FA4001B0704781B0CDF800E005B2F8
:100430000EB21FB2140224B22C19A1B2442000F053
:100440000BFCB1B2452000F007FCB9B2462000F029
:1004500003FC31B228B2FFF7BFFEDDF800E001B0C7
:100460007047FFFF01F00103064A1360064A10605F
:1004700000235BB2054A136001235BB2034A136099
:10048000704700BF9C0122420C0C014084012242B3
:1004900081B0194900EA0101084600220EE004205B
:1004A00022E0082020E010201EE020201CE0402058
:1004B0001AE0802018E040F2001015E00F49884251
:1004C000EDD00F498842ECD00E498842EBD00E495E
:1004D0008842EAD00D498842E9D00D498842E8D0E7
:1004E0000C498842E7D010460B49096841EA0002EE
:1004F00009490A6001B0704700FCFFFF0008014095
:10050000000C01400010014000140140001801409F
:10051000001C0140002001401810024081B0CDF8BD
:1005200000E08CB21546774B00EA03031E461846DE
:10053000FFF7AEFFB4F1FF0F0CD1734B9D4203D117
:100540004FF033333360D9E0422D03D14FF04433C1
:100550003360D3E04FF6FF739C4214D16A4B9D4247
:1005600007D14FF033333360341D4FF03333236002
:10057000C4E0422D07D14FF044333360341D4FF0B7
:1005800044332360BAE00021002005F001030BB1E1
:1005900000211DE005F0020333B105F4C0730BB177
:1005A000082100E0042113E005F0040333B105F055
:1005B00020030BB1042100E0002109E005F008034D
:1005C00033B105F020030BB10C2100E00821FFE757
:1005D0004E4B05EA03030BB1032009E005F4007359
:1005E0000BB1022004E005F480630BB10120FFE7AA
:1005F00005F00C030BB10143FFE704F0FF039BB2CE
:10060000002B3BD0376800201FFA84F832462E4674
:1006100008282CD24FF0010303FA00F408EA04037F
:10062000A34222D185004FF00F03AB40DB4307EA22
:10063000030401FA05F344EA03031D4606F481733B
:10064000B3F5817F05D102F214044FF0010383401A
:10065000236006F08203822B05D102F210044FF0D2
:100660000103834023602F46FFE7401CD0E717605B
:100670001FFA88F00F463146164602E00F4629461B
:10068000A0B2B0F1FF0F39D9331DD3F8008000229A
:10069000082A30D202F208044FF0010303FA04F4EE
:1006A00000EA0403A34224D195004FF00F03AB40AE
:1006B000DB4308EA030807FA05F348EA030801F4F4
:1006C0008173B3F5817F07D106F2140502F20804A5
:1006D0004FF00103A3402B6001F08203822B07D16E
:1006E00006F2100502F208044FF00103A3402B604C
:1006F000FFE7521CCCE7331DC3F80080DDF800E0B3
:1007000001B0704700FCFFFF14000800000808005B
:1007100084B0CDF800E0ADF80800ADF80C1016B2CA
:100720009FB2BDF90C50BDF90840AC4205DD03ADE8
:1007300002AC29462046FFF7FBFCADF8047037B247
:10074000BDF80460BDF90840651E2DB2BDF90C402E
:10075000AC420BDDB2B239B2BDF90C0000F02CF89E
:10076000BDF90C40641EADF80C40EBE7DDF800E08D
:1007700004B0704781B006B54FEA40024FEA1262FA
:100780007F3A44BF4FF0000011E0D2F11F0209D9B7
:100790004FEA002141F00041D14000284CBF4842BF
:1007A000084604E000284FF0004058BF401EBDE856
:1007B000064001B07047FFFF81B0CDF800E095B270
:1007C000B0F5A07F06DAF02904DA002802DB002960
:1007D00000DB00E00DE0002464B2084B1C60FFF772
:1007E000FBFC0121A8B2FFF73DFE012464B2034BDC
:1007F0001C60DDF800E001B0704700BF98012242A4
:1008000084B0CDF800E006B2ADF80810ADF80C20C9
:100810009FB2BDF90C50BDF90840AC4205DD03ADF7
:1008200002AC29462046FFF783FCADF8047037B2CE
:10083000BDF80460BDF90840651E2DB2BDF90C403D
:10084000AC420BDDB2B2BDF90C1038B2FFF7B4FF09
:10085000BDF90C40641EADF80C40EBE7DDF800E09C
:1008600004B0704783B0CDF800E0BDF80C70BDF95E
:1008700010809DF814902E248DF8044020248DF8CB
:10088000054020248DF8064020248DF807402024C0
:100890008DF8084001AC651C40F2E83424B298FBA6
:1008A000F4F424B230342C70B9F1010F31D901AC19
:1008B000A61C40F2E83424B298FBF4F504FB15853D
:1008C0002DB2642424B295FBF4F424B23034347095
:1008D000B9F1020F1DD901ACE61C642424B298FBC7
:1008E000F4F504FB15852DB20A2424B295FBF4F42B
:1008F00024B230343470B9F1030F0AD901AC261D8B
:100900000A252DB298FBF5F405FB148424B230348B
:10091000347001ADBCB220B410B401F0EDFC02B0F3
:10092000DDF800E003B0704781B082F000422DE9AD
:10093000FA414FEA02244FEA42052D0E04D1002C61
:1009400018BF4FF000006CE044F00044FF2D5FD072
:100950004FEA9404002A48BF64424FEA00214FEA5C
:1009600040031B0E05D1002914BF4FF000001046B4
:1009700057E041F00041FF2B4BD04FEA9101002896
:1009800048BF49425E1B41BF0F4621463C46764266
:1009900048BF2B46192E47BF44FA06F7C9194FF036
:1009A000000803E0C6F11C0704FA07F8002904BF99
:1009B0004FF0000035E046BF49424FF001074FF0CD
:1009C0000007A3F101034900FBD511F080040DD00D
:1009D00001F0200548EA0508803128BF5B1C01F0C2
:1009E000400458EA040808BF21F480719B1CDCBF56
:1009F0004FF0000015E0FF2B0DD221F0FF014FEA70
:100A000041014FEA512040EAC35040EAC77008E074
:100A100010464FEAD0774FEAC777FF204FEAC05021
:100A20003843BDE8FA4101B07047FFFF81B00028AC
:100A300008BF19E006B554BF0146D0F100014FF0E0
:100A40009E0202D4521E4900FCD580312CBF521C9C
:100A500049004FEA512141EAC25100284CBF41F000
:100A600000400846BDE8064001B0704781B010B5AF
:100A7000904208BF2AE040EA02044FEA4404002CF6
:100A800008BF23E0440004D1944201D4A41C012CEB
:100A90001CE04FEA40044FEA1464FF2C0AD14FEAED
:100AA00042044FEA1464FF2C04D14FEAD274B4EB31
:100AB000D0340BE0002A06D4002802DC0024012CEC
:100AC00004E0904202E0002848BF8242BDE81040A6
:100AD00001B0704781B0FAB590EA02064CBF4FF002
:100AE00000464FF000064FEA00214FEA40031B0E7C
:100AF00012BF41F000414FF000002CE0FF2B26D048
:100B00004FEA02244FEA42052D0E12BF44F0004482
:100B10004FF000001FE0FF2D19D05B19A1FB04541A
:100B2000002C5CBF64005B1E803424BF5B1C640827
:100B30007E3BDCBF4FF000000DE0FF2B07D24FEAF9
:100B4000142030F4000040EAC350304303E0FF2794
:100B5000FF0546EA0700BDE8FA4001B07047FFFF15
:100B600083B0CDF800E08DF804208AB281B29DF800
:100B70000400BDF80C509DF81060002803D8012037
:100B80005FFA80F801E05FFA80F8B1F5A07F02D249
:100B9000F02A00D8FFE740F2000C88B21FFA83F970
:100BA0001FFA85FA5FFA86FBBCF1050F4DD20021D2
:100BB00008293ED2ABF120052DB205246543254C12
:100BC000641904EB0C042478E3B223FA01F4A4B210
:100BD00004F00104A4B29CB1ADF80420ADF8080003
:100BE0008DF80A105FFA88F391B21FFA89F2FFF7C5
:100BF000A3FB9DF80A10BDF80800BDF8042012E020
:100C0000ADF80420ADF808008DF80A105FFA88F3FB
:100C100091B21FFA8AF2FFF78FFB9DF80A10BDF818
:100C20000800BDF8042002EB080292B2491CC9B2C8
:100C3000BEE74FEAC804A4B2121B92B2401C80B2B5
:100C40000CF1010C5FFA8CFCAEE7DDF800E003B0BC
:100C5000704700BF4CE2000081B0CDF800E08CB2DC
:100C60000021FFF7FFFB0121A0B2FFF7FBFBDDF83E
:100C700000E001B07047FFFF81B0002808BF0FE01F
:100C800002B54FF09E0202D4521E4000FCD58030C7
:100C90002CBF521C4000400A40EAC250BDE802404E
:100CA00001B0704700000000012149B21548016001
:100CB0004EF65F27C0F200077F1EFDD100BF00BFC8
:100CC00000BF00BF00BF002149B20E48016044F6DA
:100CD0007F77C0F2120700BF00BF7F1EFDD100BFAB
:100CE00000BF00BF012149B2064801604BF61F77E3
:100CF000C0F2020700BF00BF7F1EFDD100BF00BFD2
:100D000000BF70478001224281B0CDF800E0194851
:100D1000FFF7BEFB184A40F208011648FFF7FEFB3A
:100D20001648FFF7B5FB1648FFF77EFA124A4FF652
:100D3000FF711248FFF7F2FB1248FFF7A9FB0E4ABA
:100D4000C7211048FFF7EAFB012149B20E480160B4
:100D50000E48016044F67F77C0F2120700BF00BF63
:100D60007F1EFDD100BF00BF00BFDDF800E001B075
:100D7000704700BF0008014014000800000C01404B
:100D80002CE4000000100140880122428C01214225
:100D900081B0CDF800E00848FFF77AFB82225021AD
:100DA0000548FFF7BBFB054AA4210348FFF7B6FB44
:100DB000DDF800E001B070470008014014000800B1
:100DC00081B0CDF800E01FFA80F84FF49639002288
:100DD00052B213490A6040F23F131BB2EF2212B223
:100DE000002109B2002000B2FFF71EFB01211FFA0B
:100DF00088F0FFF737FB484648B1002252B2094954
:100E00000A60012252B207490A60401EF4E701223B
:100E100052B203490A60DDF800E001B0704700BF3C
:100E2000980122428401224281B0CDF800E002B54F
:100E3000002802D5FFF79EFC13E04FEA40014FEA7D
:100E400011617F393CBF4FF000000AE0D1F11F0172
:100E500005D34FEA002040F00040C84001E00020E8
:100E6000401EBDE80240DDF800E001B07047FFFF22
:100E700081B0CDF800E00B460146154608462A46EB
:100E8000FFF7F4FD40F2000000DB012008B1284626
:100E90000BE008461A46FFF7E9FD40F2000000DCCF
:100EA000012008B1184600E00846DDF800E001B076
:100EB0007047FFFF84B0CDF800E082468B46944631
:100EC0009946049C4A462046FFF72EFD03905A4659
:100ED0006046FFF729FD02900398019102990A46A6
:100EE000FFF750FA019902905A465046FFF71CFD51
:100EF000029AFFF7EFFD4A4600F0D6FADDF800E06F
:100F000004B0704782B0CDF800E0BDF80880BDF9AC
:100F10000C6020248DF8044020248DF80540202406
:100F20008DF8064020248DF80740002E07DA01AD29
:100F30002D242C70C6F100090FFA89F904E001ADE7
:100F400020242C700FFA86F9B9F1630F26DD40F2E8
:100F5000E734A14522DC01AF7D1C642424B299FB57
:100F6000F4F424B230342C70BE1C642424B299FBF7
:100F7000F4F504FB15952DB20A2424B295FBF4F484
:100F800024B230343470FE1C0A252DB299FBF5F4DE
:100F900005FB149424B2303434703AE0B9F1090FEF
:100FA00020DDB9F1630F1DDC01AF7E1C642424B287
:100FB00099FBF4F504FB15952DB20A2424B295FB98
:100FC000F4F424B230343470BE1C0A252DB299FBDF
:100FD000F5F405FB149424B230343470FD1C202445
:100FE0002C7016E0B9F1000F13DBB9F1090F10DC1A
:100FF00001AF7E1C0A252DB299FBF5F405FB149474
:1010000024B230343470BD1C20242C70FD1C2024EC
:101010002C7001AD1FFA88F420B410B401F06CF903
:1010200002B0DDF800E002B07047FFFF89B0CDF8F4
:1010300000E0ADF81C001FFA83F8D3B2BDF824908D
:10104000DDF828A09DF82C408DF82C40ADF8041058
:101050005046FFF78FFBBDF80410069005461FFAB7
:1010600089F4CDF804A0ADF80890ADF80C808DF8A7
:101070001030ADF81410DAB21FFA88F3BDF81C0076
:1010800020B410B400F0D0FA02B0BDF814109DF8EE
:101090001030BDF80C80BDF80890DDF804A0ADF864
:1010A00004100698FFF7C2FCBDF804100890089AD7
:1010B000ADF804808DF80830ADF80C105046FFF7FD
:1010C00033FCBDF80C109DF80830BDF80480824A4E
:1010D0008DF80430ADF80810FFF7FCFCBDF80810DF
:1010E0009DF80430ADF80410FFF744FBBDF8041080
:1010F0000690002802DA069C64420694764852461E
:10110000FFF7B4FC40F2000000DC0120D8B17348C6
:101110005246FFF7ABFC40F2000000DD012090B129
:101120009DF82C70069E1FFA89F5BDF81C402434EA
:10113000DAB21FFA88F3A0B280B440B420B4FFF74B
:1011400091FB03B0C3E066485246FFF78FFC40F2C4
:10115000000000DC0120D8B15F485246FFF786FC52
:1011600040F2000000DD012090B19DF82C70069E39
:101170001FFA89F5BDF81C401E34DAB21FFA88F355
:10118000A0B280B440B420B4FFF76CFB03B09EE083
:1011900054485246FFF76AFC40F2000000DC012090
:1011A000D8B14F485246FFF761FC40F2000000DD25
:1011B000012090B19DF82C70069E1FFA89F5BDF8AC
:1011C0001C401834DAB21FFA88F3A0B280B440B4DD
:1011D00020B4FFF747FB03B079E043485246FFF7DE
:1011E00045FC40F2000000DC0120D8B13D485246E9
:1011F000FFF73CFC40F2000000DD012090B19DF8BB
:101200002C70069E1FFA89F5BDF81C401234DAB224
:101210001FFA88F3A0B280B440B420B4FFF722FBD9
:1012200003B054E030485246FFF720FC40F2000083
:1012300000DD012000284AD09DF82C70069E1FFA80
:1012400089F5BDF81C400C34CDF804A0ADF8089029
:10125000ADF80C808DF81030ADF81410DAB21FFA2A
:1012600088F3A0B280B440B420B4FFF7FBFA03B017
:10127000BDF814109DF81030BDF80C80BDF8089032
:10128000DDF804A04FF000005246FFF7EFFB40F2FC
:10129000000000DD012068B12D251FFA89F4DAB2C3
:1012A0001FFA88F3BDF81C0020B410B4FFF758FCF7
:1012B00002B00CE020251FFA89F4DAB21FFA88F395
:1012C000BDF81C0020B410B4FFF74AFC02B0DDF8F2
:1012D00000E009B0704700BF00401C460050C34703
:1012E00000007A440000C842000020410C2240F275
:1012F0000001002A13D9480083B2012149B20948EC
:101300000160002149B2074801600749086810B12F
:10131000591C89B200E099B2521ED2B2E9E788B2F4
:10132000704700BF94012142180121428FB0CDF8CF
:1013300000E0ADF82000C8B24FF0000204920DE0CA
:101340003B4A05923B4A06923B4A079209E03B4AD8
:101350000592384A06923A4A079202E00128EFD0F5
:10136000F5E701AA0E920D92079A0C92BDF82000A3
:10137000FFF782FC334AFFF7D7FA0C9A04B44FF018
:101380000003079A0699FFF795FD01B00D9A1060CA
:101390000E9A121D0D92079A0C92BDF82000FFF7CD
:1013A0006BFC284A00F080F80C9A04B44FF000035C
:1013B000079A0699FFF77EFD01B00D9A10600E9A0C
:1013C00008320D92079A0C92BDF82000FFF754FCEA
:1013D0000C9A04B44FF00003079A0699FFF76AFDD0
:1013E00001B00D9A106040F20009B9F1030F0ED25E
:1013F00001AB4FEA89029A181268049800F054F879
:10140000049009F10102D0B25FFA80F9EDE7049887
:101410000D4AFEF7B7FF079A4FF000010046FFF7AD
:1014200027FDFFF701FD80B2DDF800E00FB0704747
:1014300000007A4300806D4500809F430000C84350
:1014400000006F43000048420000404081B0082384
:10145000002252B212490A608DF80030C3B29DF8E2
:101460000000002819D903F08001C9B221B101227E
:1014700052B20C490A6003E0002252B209490A60E4
:101480005900CBB2002252B205490A60012252B281
:1014900003490A60401EC0B2E3E701B0704700BFD5
:1014A000940121429C01214281B02DE9FA414FEA89
:1014B00002244FEA42052D0E04D1002C18BF4FF034
:1014C00000006CE044F00044FF2D5FD04FEA94042C
:1014D000002A48BF64424FEA00214FEA40031B0E36
:1014E00005D1002914BF4FF00000104657E041F02D
:1014F0000041FF2B4BD04FEA9101002848BF4942E1
:101500005E1B41BF0F4621463C46764248BF2B46F4
:10151000192E47BF44FA06F7C9194FF0000803E037
:10152000C6F11C0704FA07F8002904BF4FF00000B9
:1015300035E046BF49424FF001074FF00007A3F1E5
:1015400001034900FBD511F080040DD001F0200506
:1015500048EA0508803128BF5B1C01F0400458EAC6
:10156000040808BF21F480719B1CDCBF4FF0000011
:1015700015E0FF2B0DD221F0FF014FEA41014FEAA8
:10158000512040EAC35040EAC77008E010464FEAD5
:10159000D0774FEAC777FF204FEAC0503843BDE805
:1015A000FA4101B07047FFFF81B0CDF800E01DB2F5
:1015B0008BB2019903EB050A0FFA8AFA4FF0000B80
:1015C00000256DB2174C256086B217B28846BAF175
:1015D000000F1EDD30B20FFA80F9F419A4B2A14554
:1015E00012D24FEA4B0408EB04042488A2B20FFA8B
:1015F0008AF10FFA89F0FFF7DFF80BF1010B09F11F
:1016000001090FFA89F9E8E7AAF1010A0FFA8AFA43
:10161000DDE701256DB2034C2560DDF800E001B087
:10162000704700BF9801224283B0CDF800E0BDF8BA
:101630000C80049E20248DF8044020248DF8054061
:1016400020248DF8064020248DF8074020248DF8B2
:10165000084020248DF80940002E05DA01AD2D2424
:101660002C70C6F1000903E001AD20242C70B146B6
:1016700042F20F74A14534DD01AF7D1C42F21074BB
:1016800099FBF4F430342C70BE1C42F2107499FBB8
:10169000F4F504FB159540F2E83495FBF4F430348E
:1016A0003470FE1C40F2E83499FBF4F504FB159508
:1016B000642495FBF4F4303434703E1D642499FBAB
:1016C000F4F504FB15950A2495FBF4F430343470DA
:1016D0007E1D0A2599FBF5F405FB14943034347013
:1016E0009FE040F2E734A14534DD42F20F74A1459A
:1016F00030DC01AF7E1C42F2107499FBF4F504FB60
:10170000159540F2E83495FBF4F430343470BE1C87
:1017100040F2E83499FBF4F504FB1595642495FB3D
:10172000F4F430343470FE1C642499FBF4F504FBAB
:1017300015950A2495FBF4F4303434703E1D0A25C7
:1017400099FBF5F405FB1494303434707D1D20248E
:101750002C7066E0B9F1630F2ADD40F2E734A14551
:1017600026DC01AF7E1C40F2E83499FBF4F504FB63
:101770001595642495FBF4F430343470BE1C642455
:1017800099FBF4F504FB15950A2495FBF4F4303429
:101790003470FE1C0A2599FBF5F405FB14943034D3
:1017A00034703D1D20242C707D1D20242C7038E0C9
:1017B000B9F1090F20DDB9F1630F1DDC01AF7E1C0B
:1017C000642499FBF4F504FB15950A2495FBF4F4C5
:1017D00030343470BE1C0A2599FBF5F405FB1494D3
:1017E00030343470FD1C20242C703D1D20242C70BE
:1017F0007D1D20242C7014E001AF7E1C0A2599FB6E
:10180000F5F405FB149430343470BD1C20242C7086
:10181000FD1C20242C703D1D20242C707D1D2024B7
:101820002C7001AD1FFA88F420B410B400F064FDF0
:1018300002B0DDF800E003B07047FFFF83B0CDF8E1
:1018400000E006B20FB20FFA82FA0FFA83FBBDF87E
:101850000C80ABEB07052DB22AB2AAEB060000B252
:10186000002D06DA524212B24FF6FF790FFA89F9CB
:1018700003E040F201090FFA89F9002805DA404235
:1018800000B24FF6FF7109B201E0012109B2440034
:101890000FFA84FC520012B2ADF80420ADF8061025
:1018A0001FFA88F239B230B2FEF786FFBDF9061092
:1018B000BDF9042094452FDD4FEA6C0424B2101BBF
:1018C00000B20FFA8CFB0FFA81FC0FFA8AF10FFAC3
:1018D00082FA32B28A421ED0002806DB07EB0907E3
:1018E0003FB2A0EB0B0000B2FFE702EB0C052EB2FB
:1018F00000EB0A0000B2ADF80400ADF808101FFAC2
:1019000088F239B228B2FEF757FFBDF90810BDF9C9
:10191000040032B2DEE730E0541024B2ACEB040332
:101920001BB21FFA88FA0FFA81F831B216B238B238
:101930000FFA8CF7584520D0002B05DB01EB08018E
:1019400009B29A1B12B200E01AB200EB09050FFAB5
:1019500085FCD41920B2ADF80400ADF808101FFAC8
:101960008AF208B229B2FEF727FFBDF90810BDF9C7
:10197000040003B20FFA8CF0DCE7DDF800E003B0FE
:101980007047FFFF86B0CDF800E0ADF80C0010B254
:10199000ADF810108DF81430BDF81840ADF81840AF
:1019A00040F20004ADF80440ADF80600C0F10104B7
:1019B000ADF80840E9E0BDF81880BDF90650BDF962
:1019C00010406719BDF90450BDF90C406619BDF906
:1019D0000450BDF90C40641B3BB232B239B220B2A4
:1019E0004DF8048DFFF72AFF01B0BDF81880BDF94E
:1019F0000650BDF91040671BBDF90450BDF90C40FD
:101A00006619BDF90450BDF90C40641B3BB232B2FB
:101A100039B220B24DF8048DFFF710FF01B0BDF8C8
:101A20001880BDF90450BDF910406719BDF9065082
:101A3000BDF90C406619BDF90650BDF90C40641B98
:101A40003BB232B239B220B24DF8048DFFF7F6FE48
:101A500001B0BDF81880BDF90450BDF91040671BF6
:101A6000BDF90650BDF90C406619BDF90650BDF927
:101A70000C40641B3BB232B239B220B24DF8048D37
:101A8000FFF7DCFE01B086E0BDF90650BDF910405D
:101A90006619BDF90450BDF90C406419BDF8182051
:101AA00031B220B2FEF788FEBDF90450BDF91040F6
:101AB0006619BDF90650BDF90C406419BDF818202F
:101AC00031B220B2FEF778FEBDF90650BDF91040E4
:101AD0006619BDF90450BDF90C40641BBDF818200F
:101AE00031B220B2FEF768FEBDF90450BDF91040D6
:101AF0006619BDF90650BDF90C40641BBDF81820ED
:101B000031B220B2FEF758FEBDF90450BDF91040C5
:101B1000661BBDF90650BDF90C406419BDF81820CC
:101B200031B220B2FEF748FEBDF90650BDF91040B3
:101B3000661BBDF90450BDF90C406419BDF81820AE
:101B400031B220B2FEF738FEBDF90650BDF91040A3
:101B5000661BBDF90450BDF90C40641BBDF818208C
:101B600031B220B2FEF728FEBDF90450BDF9104095
:101B7000661BBDF90650BDF90C40641BBDF818206A
:101B800031B220B2FEF718FE05E09DF81440012C9A
:101B90003FF411AF78E7BDF90840002C10DABDF929
:101BA0000440640024B2E51C2DB2BDF9084064195C
:101BB000ADF80840BDF90440641CADF8044018E0DD
:101BC000BDF90650BDF90440641B24B2640024B280
:101BD000651D2DB2BDF908406419ADF80840BDF986
:101BE0000440641CADF80440BDF90640641EADF825
:101BF0000640BDF90650BDF90440AC427FF7DAAEAD
:101C0000DDF800E006B0704785B0CDF800E00FFACF
:101C100080F90FFA81FAADF80C20ADF810309DF87C
:101C200014009DF818408DF81840BDF81C40ADF820
:101C30001C40BDF82040ADF820407DE0BDF90C40CF
:101C4000A14506DAADF80490BDF90C40ADF80640A8
:101C500005E0BDF90C40ADF80440ADF80690BDF9C3
:101C60001040A24506DAADF808A0BDF91040ADF865
:101C70000A4005E0BDF91040ADF80840ADF80AA0F3
:101C80000FFA89F60FFA8AF8BDF90650BDF904403B
:101C9000AC4221DCBDF908700FFA88FC0FFA87F915
:101CA00037B2BDF90A40A1450DDCBDF81C200FFA82
:101CB00089F1BDF90400FEF77FFD09F1010420B2AE
:101CC0000FFA80F9EDE7BDF90440641CADF804405B
:101CD0003EB20FFA8CF8D7E70FFA88F730E0BDF87C
:101CE0001C30BDF910200FFA8AF10FFA89F0FEF7C7
:101CF00087FDBDF81C30BDF910200FFA8AF1BDF93F
:101D00000C00FEF77DFDBDF81C300FFA8AF2BDF91C
:101D10000C100FFA89F0FEF7FBFCBDF81C30BDF982
:101D20001020BDF90C100FFA89F0FEF7F1FC0FFA44
:101D300089F60FFA8AF703E001283FF47FAFCEE778
:101D40009DF81840DCB1BDF8202039B230B2FEF762
:101D500033FDBDF82020BDF9101030B2FEF72CFD88
:101D6000BDF8202039B2BDF90C00FEF725FDBDF805
:101D70002020BDF91010BDF90C00FEF71DFDDDF8A7
:101D800000E005B07047FFFF81B0CDF800E0FEF73E
:101D9000BBFFFEF789FF002149B2654801600121C0
:101DA0000020FEF759FF4AF6A4010320FEF754FF76
:101DB00000210C20FEF750FF40F60C010D20FEF72D
:101DC0004BFF42F600310E20FEF746FFB7211E20E2
:101DD000FEF742FF42F63F310120FEF73DFF40F2A1
:101DE00000610220FEF738FF00211020FEF734FFCB
:101DF00046F270011120FEF72FFF00210520FEF7AB
:101E00002BFF00210620FEF727FF4EF61C7116203F
:101E1000FEF722FF03211720FEF71EFF40F23321B9
:101E20000720FEF719FF00210B20FEF715FF002108
:101E30000F20FEF711FF00214120FEF70DFF0021CA
:101E40004220FEF709FF00214820FEF705FF40F27F
:101E50003F114920FEF700FF00214A20FEF7FCFE5B
:101E600000214B20FEF7F8FE4EF695714420FEF758
:101E7000F3FE00214520FEF7EFFE40F23F11462021
:101E8000FEF7EAFE40F207713020FEF7E5FE40F271
:101E900004213120FEF7E0FE40F204213220FEF75B
:101EA000DBFE40F202513320FEF7D6FE40F207512E
:101EB0003420FEF7D1FE40F204213520FEF7CCFE9F
:101EC00040F204213620FEF7C7FE40F202513720CF
:101ED000FEF7C2FE40F202313A20FEF7BDFE40F2AC
:101EE00002313B20FEF7B8FE00212320FEF7B4FEAE
:101EF00000212420FEF7B0FE48F200012520FEF765
:101F0000ABFE00214F20FEF7A7FE00214E20FEF77A
:101F1000A3FE00212220FEF7A5FA012149B20448C0
:101F200001600020FEF74CFFDDF800E001B07047D3
:101F30009801224281B0CDF800E0FEF729FF01218F
:101F400049B2054801600548016005480160DDF8B7
:101F500000E001B0704700BF880121429C0121428E
:101F60009401214289B0CDF800E0ADF81400ADF83D
:101F70001810ADF81C20ADF82030BDF92440ADF8A4
:101F80002440BDF92840ADF828409DF82C00BDF84C
:101F90003040ADF8304040F20004ADF8044040F26B
:101FA0000004ADF806409FE1BDF92050BDF918408E
:101FB000AC420BDD08AD06AC29462046FEF7B8F86A
:101FC00007AD05AC29462046FEF7B2F8BDF928500A
:101FD000BDF92040AC420BDD08AD0AAC29462046D5
:101FE000FEF7A6F807AD09AC29462046FEF7A0F893
:101FF000BDF92050BDF91840AC420BDD08AD06AC70
:1020000029462046FEF794F807AD05AC2946204640
:10201000FEF78EF8BDF92850BDF91840AC4246D104
:10202000BDF91440ADF80640BDF91440ADF80440C8
:10203000BDF91450BDF91C40AC4204DABDF91C4096
:10204000ADF8044009E0BDF90650BDF91C40AC42B2
:1020500003DDBDF91C40ADF80640BDF90450BDF9E3
:102060001C40AC4204DABDF92440ADF8044009E05C
:10207000BDF90650BDF92440AC4203DDBDF9244052
:10208000ADF80640BDF90440651C2DB2BDF906400F
:10209000651B2DB2BDF904406419BDF83030BDF99F
:1020A000182021B2BDF90400FEF732FB20E1BDF992
:1020B0001450BDF91C40641BADF80E40BDF918501A
:1020C000BDF92040641BADF81240BDF91450BDF9B4
:1020D0002440641BADF81040BDF91850BDF92840EC
:1020E000A4EB050C0FFA8CFCBDF91C50BDF9244083
:1020F000A4EB05090FFA89F9BDF92050BDF9284074
:10210000A4EB050B0FFA8BFB002424B2ADF80840BA
:10211000002424B2ADF80A40BDF92850BDF9204092
:10212000AC4204D1BDF92040ADF80C4004E0BDF94B
:102130002040641EADF80C40BDF91880BDF90C407C
:10214000A04548DCBDF91250BDF9084094FBF5F5F7
:102150002DB2BDF9144067193FB2ADF80470BDF956
:102160000A4094FBFCF52DB2BDF91440661936B255
:10217000ADF80660BDF90E50BDF908406419ADF820
:102180000840BDF91050BDF90A406419ADF80A4085
:10219000B74206DD0DF1060501AC29462046FDF7E4
:1021A000C7FFBDF90440651C2DB2BDF90640651B93
:1021B0002DB2BDF904406419BDF830300FFA88F231
:1021C00021B2BDF90400FEF7A3FA08F1010000B244
:1021D0000FFA80F8B2E7BDF92040A8EB040424B25E
:1021E00009FB04F4ADF80840BDF91840A8EB04055C
:1021F0002DB2BDF910406C43ADF80A40BDF928403E
:10220000A04545DCBDF9084094FBFBF52DB2BDF9B6
:102210001C4067193FB2ADF80470BDF90A4094FB49
:10222000FCF52DB2BDF91440661936B2ADF8066062
:10223000BDF9084004EB0904ADF80840BDF91050A1
:10224000BDF90A406419ADF80A40B74206DD0DF148
:10225000060501AC29462046FDF76AFFBDF904409A
:10226000651C2DB2BDF90640651B2DB2BDF90440B9
:102270006419BDF830300FFA88F221B2BDF90400BC
:10228000FEF746FA08F1010420B20FFA80F8B5E72C
:102290002EE0BDF83040BDF92030BDF91C20BDF95D
:1022A0001810BDF9140010B4FFF7C8FA01B0BDF85A
:1022B0003040BDF92830BDF92420BDF92010BDF90A
:1022C0001C0010B4FFF7BAFA01B0BDF83040BDF9F8
:1022D0001830BDF91420BDF92810BDF9240010B440
:1022E000FFF7ACFA01B003E001283FF45DAED0E7A0
:1022F000DDF800E009B0704786B0CDF800E0ADF839
:102300000800ADF80C108DF81020ADF81430BDF8B1
:102310001840ADF8184007980478E5B2BDF81840A9
:102320000190BDF814309DF81020BDF80C10BDF8D8
:10233000080020B410B4FEF713FC02B00198451C4D
:102340002F46BDF80840A41DADF808402C78202C7D
:1023500004D33C787F2C01D83846DDE7DDF800E077
:1023600006B0704786B0CDF800E0BDF918C0BDF8E2
:102370001C40ADF81C40BDF82050BDF82440ADF81D
:1023800024409DF82840B2E0BDF824B01FFA85FA39
:1023900040F2000940F20108A2EB0C07C41824B275
:1023A000661E551E441CADF804C0ADF80830ADF8EB
:1023B0000C20ADF81010ADF814003BB232B229B2C7
:1023C00020B24DF804BD4DF804AD4DF8049D4DF814
:1023D000048DFFF719FC04B0BDF91400BDF910100D
:1023E000BDF90C20BDF90830BDF904C0BDF824B01A
:1023F000BDF824A040F2000940F201084F1CC418A7
:1024000024B2661EA2EB0C0424B2651E441CADF877
:102410000430ADF80820ADF80C10ADF810003BB258
:1024200032B229B220B24DF804BD4DF804AD4DF8DA
:10243000049D4DF8048DFFF7E7FB04B0BDF91000D3
:10244000BDF90C10BDF90820BDF90430BDF8248099
:10245000BDF81C7000260025C41813B222B24DF836
:10246000048D80B440B420B4FFF7CEFB04B042E04A
:10247000BDF824901FFA85F800270126A2EB0C0571
:10248000C418ADF804C0ADF80830ADF80C20ADF8B4
:102490001010ADF814002BB211B222B24DF8049D09
:1024A0004DF8048D80B440B4FFF7AEFB04B0BDF925
:1024B0001400BDF91010BDF90C20BDF90830BDF9AC
:1024C00004C0BDF82490BDF8248000270126C5185B
:1024D000A2EB0C040BB22AB221B24DF8049D4DF8C8
:1024E000048D80B440B4FFF78FFB04B003E0012CEF
:1024F0003FF44AAFBCE7DDF800E006B07047FFFFED
:1025000086B0CDF800E0BDF918C0BDF81C40ADF8AC
:102510001C40BDF82050BDF82440ADF824409DF883
:102520002840B7E0BDF824B01FFA85FA40F2000950
:1025300040F20108D41824B2671E00EB0C06551CAB
:10254000441CADF804C0ADF80830ADF80C20ADF86F
:102550001010ADF814003BB232B229B220B24DF8DF
:1025600004BD4DF804AD4DF8049D4DF8048DFFF702
:102570004BFB04B0BDF91400BDF91010BDF90C20DF
:10258000BDF90830BDF904C0BDF824B0BDF824A0E1
:1025900040F2000940F20108D41824B2671E00EB93
:1025A0000C0424B2661C551C4C1EADF80430ADF86A
:1025B0000820ADF80C10ADF810003BB232B229B2D1
:1025C00020B24DF804BD4DF804AD4DF8049D4DF812
:1025D000048DFFF719FB04B0BDF91000BDF90C1014
:1025E000BDF90820BDF90430BDF82480BDF81C7089
:1025F00000260025D418ADF8042023B20AB2BDF994
:1026000004104DF8048D80B440B420B4FFF7FCFAF8
:1026100004B043E0BDF824901FFA85F80027012696
:10262000D51800EB0C04ADF804C0ADF80830ADF8D7
:102630000C20ADF81010ADF814002BB211B222B27C
:102640004DF8049D4DF8048D80B440B4FFF7DCFADA
:1026500004B0BDF91400BDF91010BDF90C20BDF98E
:102660000830BDF904C0BDF82490BDF824800027CF
:102670000126D51800EB0C042BB208B211B222B21D
:102680004DF8049D4DF8048D80B440B4FFF7BCFABA
:1026900004B003E0012C3FF445AFBBE7DDF800E0F8
:1026A00006B0704781B00F48006840F001010D4846
:1026B00001600D490D4801600A4801680C4801405D
:1026C00008480160074801686FF480200140054810
:1026D0000160064801686FF4FE0001400348016094
:1026E00001B07047001002400000FFF804100240E3
:1026F000FFFFF6FE81B01CF8019B0BF8019BBBEBC2
:102700000A0FF8D101B0704781B04FF000094FF0C7
:10271000000CBDEB0A0F04DCBDEB0B0F01DBD44654
:10272000EA464BF8049BBBEB0A0FFAD1BCEB0A0F4D
:1027300005DDE246D9F800B00BF1040BF1E701B07A
:102740007047FFFF81B0CDF800E0FFF7F3FBFFF724
:102750001BFBDDF800E001B07047FFFFFFFFFFFF4C
:1027600081B0CDF800E04FF60000FEF729FB4DF6F2
:10277000FF47C0F26D0700BF00BF7F1EFDD100BF45
:1027800000BF00BF40F2E070FEF71AFB4DF6FF47B6
:10279000C0F26D0700BF00BF7F1EFDD100BF00BFAC
:1027A00000BF1F20FEF70CFB4DF6FF47C0F26D0780
:1027B0007F1EFDD100BF00BF00BF00BF00BF0020D3
:1027C000FEF7FEFADDF800E001B07047FFFFFFFF03
:1027D00082B0CDF800E00020FEF7F2FA40F20A08DD
:1027E0000FFA88F8B8F59B7F0EDC4FF6FF73DC22FA
:1027F00012B2142109B20FFA88F0FEF701F808F1BD
:102800000A080FFA88F8EDE740F214080FFA88F882
:10281000B8F1DC0F0FDC4FF6FF730FFA88F240F2CD
:10282000361109B20A2000B2FDF772FF08F10A085A
:102830000FFA88F8ECE745F2FF07C0F2252700BF42
:1028400000BF7F1EFDD100BF00BF00BF0020FEF70C
:10285000B7FA002109B2F02914DA40F21F50ADF89E
:10286000041001B40BB240F23F1212B2002109B2BF
:10287000002000B2FEF7E2FF01B0BDF90410491DCF
:1028800009B2E8E7EF2109B2B1F1FF3F13DD1F20E4
:10289000ADF8041001B40BB2002212B2F02109B25B
:1028A00040F23F1000B2FEF7C9FF01B0BDF90410BD
:1028B000491F09B2E8E745F2FF07C0F2252700BF2C
:1028C00000BF7F1EFDD100BF00BF00BF0020FEF78C
:1028D00077FA00234FF61F020121002008B404B448
:1028E00002B401B4C7231BB240F2351212B2132155
:1028F00009B2092000B2FFF787F904B0002347F6B8
:10290000FF720021012008B404B402B401B4BD2355
:102910001BB240F22B1212B21D2109B2132000B2D9
:10292000FFF772F904B046F6FF37C0F2DC2700BFAC
:1029300000BF7F1EFDD100BF00BF00BF0020FEF71B
:102940003FFA4FF6000001B40023502212B2772163
:1029500009B29F2000B2FFF715F801B04FF6E07002
:1029600001B40123282212B2772109B29F2000B2BC
:10297000FFF708F801B045F2FF07C0F2252700BFB6
:1029800000BF7F1EFDD100BF00BF00BF0020FEF7CB
:1029900017FA40F2E0730022132109B2952000B229
:1029A00008B404B402B401B4C8231BB240F2351217
:1029B00012B2C82109B20A2000B2FFF7D3FA04B05C
:1029C00043F6FF57C0F249077F1EFDD100BF00BF8D
:1029D00000BF00BF00BF4FF2DE730122132109B216
:1029E000952000B208B404B402B401B4C8231BB2E9
:1029F00040F2351212B2C82109B20A2000B2FFF724
:102A0000B1FA04B045F2FF07C0F2252700BF00BFAE
:102A10007F1EFDD100BF00BF00BF0020FEF7D0F930
:102A200000252DB2642D6FDA012400234FF6E072E9
:102A300040F2E07128B2ADF8045010B408B404B408
:102A400002B401B414231BB20A2212B26E2109B2DD
:102A50000A2000B2FFF754FD05B0BDF90450002470
:102A6000002340F2E07240F2E07128B2ADF8045069
:102A700010B408B404B402B401B414231BB23C2251
:102A800012B26E2109B20A2000B2FFF739FD05B07B
:102A9000BDF904500124002347F6FF724FF60001F0
:102AA00028B2ADF8045010B408B404B402B401B4B0
:102AB00014231BB2E62212B2822109B240F218108E
:102AC00000B2FFF74FFC05B0BDF90450002400230D
:102AD00047F6FF7247F6FF7128B2ADF8045010B404
:102AE00008B404B402B401B414231BB2E62212B237
:102AF000822109B2F02000B2FFF734FC05B0BDF925
:102B000004506D1C2DB28DE764252DB2B5F1FF3F49
:102B100070DD012400234FF6E07240F2E07128B22C
:102B2000ADF8045010B408B404B402B401B41423D2
:102B30001BB20A2212B26E2109B20A2000B2FFF7BC
:102B4000DFFC05B0BDF904500024002340F2E07220
:102B500040F2E07128B2ADF8045010B408B404B4E7
:102B600002B401B414231BB23C2212B240F24C4115
:102B700009B20A2000B2FFF7C3FC05B0BDF904504A
:102B80000124002347F6FF724FF6000128B2ADF88A
:102B9000045010B408B404B402B401B414231BB23A
:102BA000E62212B2822109B240F2181000B2FFF7F9
:102BB000D9FB05B0BDF904500024002347F6FF728D
:102BC00047F6FF7128B2ADF8045010B408B404B44D
:102BD00002B401B414231BB2E62212B2822109B25C
:102BE000F02000B2FFF7BEFB05B0BDF904506D1E2A
:102BF0002DB28BE745F2FF07C0F2252700BF00BFCB
:102C00007F1EFDD100BF00BF00BF0020FEF7D8F837
:102C1000DDF800E002B0704781B0CDF800E040F28E
:102C2000E07340F2E0720021012008B404B402B461
:102C300001B4DB231BB240F22B1212B2142109B2F1
:102C4000142000B2FEF7E0FF04B04FF6000001B41C
:102C500001233C2212B2782109B2A02000B2FEF773
:102C600091FE01B04AF2FF17C0F24A4700BF00BF11
:102C70007F1EFDD100BF00BF00BF0020FEF7A0F8FF
:102C8000DDF800E001B0704795B0CDF800E06FF0DE
:102C900008008DF84A006FF00800ADF84C00564867
:102CA00014900DF1040B0BF10B0ADFF850C1FFF784
:102CB00021FD01A80146002002B401B44FF6000333
:102CC00001220A211020FFF717FB02B00DF10F0BB4
:102CD0000BF10B0ADFF828C1FFF70CFD0DF10F0017
:102CE0000146002002B401B440F2E07302221E212A
:102CF0001020FFF701FB02B00DF11A0B0BF10B0ACC
:102D0000DFF800C1FFF7F6FC0DF11A0001460020C4
:102D100002B401B41F2303223C211020FFF7ECFA78
:102D200002B00DF1250B0BF1240ADFF8DCC0FFF730
:102D3000E1FC0DF125000146002002B401B44FF67C
:102D4000FF7303225A211020FFF7D6FA02B00020A9
:102D50008DF849009DF84900FA2846D2BDF94C107B
:102D6000002002B401B44FF600030222962116207F
:102D7000FEF75AFC02B09DF94A10002002B401B4DB
:102D800040F2E0730222B4211620FEF7BBF802B035
:102D900001221499002004B402B401B41F230222BA
:102DA000D2211620FEF742F903B09DF94A00401CDB
:102DB0008DF84A00BDF94C00401CADF84C00149A47
:102DC0001248FEF771FB149045F2FF27C0F2070787
:102DD0007F1EFDD100BF00BF00BF00BF00BF9DF838
:102DE0004900401C8DF84900B4E70020FDF7E8FFDA
:102DF000DDF800E015B0704766661EC198E400007B
:102E0000A3E40000AEE40000B9E40000CDCCCC3D6A
:102E100081B0CDF800E04FF2DE734FF2DE72002198
:102E2000012008B404B402B401B417231BB240F269
:102E30003F1212B2002109B2002000B2FEF7E4FEF8
:102E400004B04FF6FF734FF6FF720021012008B463
:102E500004B402B401B42F231BB240F23F1212B2E9
:102E6000172109B2002000B2FEF7CEFE04B047F6EB
:102E7000FF7347F6FF720021012008B404B402B4C6
:102E800001B447231BB240F23F1212B22F2109B204
:102E9000002000B2FEF7B8FE04B040F21F5340F22B
:102EA0001F520021012008B404B402B401B45F230E
:102EB0001BB240F23F1212B2472109B2002000B209
:102EC000FEF7A2FE04B01F231F220021012008B438
:102ED00004B402B401B477231BB240F23F1212B221
:102EE0005F2109B2002000B2FEF78EFE04B040F26E
:102EF000E07340F2E0720021012008B404B402B48F
:102F000001B48F231BB240F23F1212B2772109B2F3
:102F1000002000B2FEF778FE04B04FF6E0734FF6E3
:102F2000E0720021012008B404B402B401B4A72364
:102F30001BB240F23F1212B28F2109B2002000B240
:102F4000FEF762FE04B04FF61F034FF61F0200218A
:102F5000012008B404B402B401B4BF231BB240F290
:102F60003F1212B2A72109B2002000B2FEF74CFEB8
:102F700004B04FF600034FF600020021012008B410
:102F800004B402B401B4D7231BB240F23F1212B210
:102F9000BF2109B2002000B2FEF736FE04B00023C4
:102FA00000220021012008B404B402B401B4EF23CC
:102FB0001BB240F23F1212B2D72109B2002000B278
:102FC000FEF722FE04B041F2FF27C0F2DC1700BF7B
:102FD00000BF7F1EFDD100BF00BF00BF0020FDF776
:102FE000EFFEDDF800E001B07047FFFF84B0CDF8E0
:102FF00000E00290039140F20002ADF8042040F29C
:103000000002ADF80620102500235BB2234A1360AE
:10301000ECB2002C27D99020FEF718FA01235BB2FE
:103020001F4A136000235BB21D4A1360FEF75EF96E
:10303000BDF804201218ADF80420D020FEF706FADF
:1030400001235BB2164A136000235BB2144A13607B
:10305000FEF74CF9BDF806201218ADF80620621EE6
:10306000D0B2C4B2D5E701235BB20C4A1360BDF8FD
:1030700004201209012190B2FEF758F9029A10803B
:10308000BDF806201209002190B2FEF74FF9039A0D
:103090001080DDF800E004B0704700BF88012142D5
:1030A00094012142FFFFFFFF81B0CDF800E00E4800
:1030B00001B47D231BB2B42212B200210020FEF71E
:1030C00073FA01B04AF2FF17C0F24A4700BF00BFCF
:1030D0007F1EFDD100BF00BF00BF0020FDF770FEC6
:1030E000DDF800E001B070478432000081B0024991
:1030F0000248016001B0704740190100040000203F
:1031000081B0FEE701B0704783B000F043F80BF0E8
:103110002BFAFFF7EBFF0BF0E7F9FFF713FBFFF7D5
:103120001FFBFFF775FEFFF753FBFFF775FDFFF77A
:10313000ABFDFFF7B9FF0DF1000B0BF10B0ADFF848
:1031400044C0FFF7D7FA00A80146002002B401B43A
:103150004FF6FF73022200210420FFF7CDF802B0E2
:103160000949086858B909490948FFF73FFF074866
:103170000188074800884FF6FF72FDF71DFBEFE757
:10318000FEE700BFDDE40000100121420200002044
:103190000000002082B0CDF800E0334A334B3449C0
:1031A0004BF68030814206D93248006840F0020177
:1031B0003048016011E045F6C050814206D92D48E3
:1031C000006840F001012B48016006E029480168D1
:1031D0006FF00700014027480160FFF763FA2648B7
:1031E0000360264802EA00012548016002F0010060
:1031F00040B119462248006800F00200002800D1C2
:10320000F8E700E0194602F4803048B11C48006835
:1032100000F4003000B9F9E701920A46019902E092
:1032200001911146019A01F0807070B11448006854
:1032300040F080711248016011461148006800F0AA
:10324000007000B9F9E70A46FFE70B48006800F094
:103250000C01900000F00C00814200D0F5E7DDF891
:1032600000E002B0704700BF8100090102C45D00A8
:10327000401901000020024004100240FFFF0F002F
:1032800000100240127C127C127C127C127C127C98
:10329000127C127C127C127C127C127C127C127CBE
:1032A000127C127C127C127C127C127C127C127CAE
:1032B000127C127C127C127C127C127C127C127C9E
:1032C000127C127CF27BF27BF27BF27BF27BF17B55
:1032D000F17BF17B127CD173117C117CF073117442
:1032E000117C117CF17B328432843284117C5284D3
:1032F00052845284B494738CB394938C938C528480
:10330000728C5284738C32845284117C117C327C96
:10331000127C127C1174327C127412741274327C1E
:10332000F173117411741074317411741174117477
:1033300011741174F173F173F173F17311741174E9
:10334000117411741174117411741174F173127C6D
:10335000127CF17BF27BF27BF27B127C127C127C82
:103360001274127CF173F17BF17BF17BF17BF17BC9
:10337000F17BF17BF17BF17BF17BF17BF17BF17BED
:10338000127C127CF27BF27BF27BF27BF27BF27B93
:10339000F17BF17B127C127C127C127C127C127C01
:1033A000127C127C127C127C127C127C127C127CAD
:1033B000127C127C127C127C127C127C127C127C9D
:1033C000127C127C127C127C127C127C127C127C8D
:1033D000127C127C127C127C127C127C127C127C7D
:1033E000127C127C127C127C127C127C127C127C6D
:1033F000127C127C127C127C127C127C127C127C5D
:10340000127C127C127C127C127C127C127C127C4C
:10341000127C127C127C127C127C127C127C127C3C
:10342000127C127C127C127C127C127CF27BF27B6E
:10343000F27BF27BF27BF17BF17BF17BF17BF17B29
:10344000117CD073117C117C517C117C5284738C63
:10345000738C3284738C117C5284F59CD49435A582
:10346000F59CD494D4945284738C5284528CB4942A
:10347000738C738C327C3284327C327C127C327C52
:10348000F173F1731174B06B117CF173117C117CC9
:10349000117411741174F06BF06B117CF173D17BAA
:1034A000D17BF173F173117411741174F173F173B1
:1034B000117CF173F173F17BF17BF17BF17BF17B9B
:1034C000F17BF173F173F173F173F173127C127C80
:1034D000127C127C127CF17BF17BF17B127C127CE2
:1034E000F17BF17BF17BF17BF17BF17B127C127C38
:1034F000127C127C127C127C127CF17B127C127C7E
:10350000127C127C127C127C127C127C127C127C4B
:10351000127C127C127C127C127C127C127C127C3B
:10352000127C127C127C127C127C127C127C127C2B
:10353000127C127C127C127C127C127C127C127C1B
:10354000127C127C127C127C127C127C127C127C0B
:10355000127C127C127C127C127C127C127C127CFB
:10356000127C127C127C127C127C127C127C127CEB
:10357000127C127C127C127C127C127C127C127CDB
:10358000127C127C127C127C127C127C127C127CCB
:10359000127C127CF27BF27BF27BF27BF27BF17B82
:1035A000F17BF17BD173327CB073F17B117C317C88
:1035B0005284B38C738C938CD49452843284738CE5
:1035C000728C36A576AD77AD77ADF49C938CB394C1
:1035D0005284938CD494F49CD494F49C938C938CC8
:1035E000738C738C73847384117C5284F173F173C4
:1035F000D073AF6BAF6BF073F0738F6BAF6BF07317
:10360000D073906BD173D17BF17BF17BF173F1734C
:1036100011741174F173F17B117CF17BF173F1730F
:10362000F17BF17B117C117C127C127C127C127C70
:10363000127C127C127C127C127CF17BF17BF17B80
:10364000F17BF17BF173F17BF17BF17BF17BF17B22
:10365000F17BF17B127C127C127CF17BF17B127C82
:10366000127C127C127C127C127C127C127C127CEA
:10367000127C127C127C127C127C127C127C127CDA
:10368000127C127C127C127C127C127C127C127CCA
:10369000127C127C127C127C127C127C127C127CBA
:1036A000127C127C127C127C127C127C127C127CAA
:1036B000127C127C127C127C127C127C127C127C9A
:1036C000127C127C127C127C127C127C127C127C8A
:1036D000127C127C127C127C127C127C127C127C7A
:1036E000127C127C127C127C127C127C127C127C6A
:1036F000127C127C127C127C127C127C127C127C5A
:10370000127C127CF17BF17BF17BF17BF17BF17B15
:10371000F173B06BF17B32847284D49435A5F59C3F
:10372000B494D494B394728C76AD97AD159D738C8C
:1037300076AD97ADF49CB494F49C35A556A5359D13
:1037400097AD56A5F59C159DF59CB494B494528400
:103750009384117C317CAF6BCF6B107410740F7439
:1037600030741074CF6B6E636F6BB073B073B17BDA
:10377000D17BD17BF17BF173F073F073B073B073D5
:10378000B073B073D073F1731174117CF173117451
:10379000F173117CF17BF173D173D173F173F17B10
:1037A000F17BF17BF17BF17BF17B127CF17BF17B97
:1037B000F17B127C127C127CF17BF17BF17BF17B43
:1037C000F17BF17BF17B117C127CF17B127C127C12
:1037D000127C127C127C127C127C127C127C127C79
:1037E000127C127C127C127C127C127C127C127C69
:1037F000127C127C127C127C127C127C127C127C59
:10380000127C127C127C127C127C127C127C127C48
:10381000127C127C127C127C127C127C127C127C38
:10382000127C127C127C127C127C127C127C127C28
:10383000127C127C127C127C127C127C127C127C18
:10384000127C127C127C127C127C127C127C127C08
:10385000127C127C127C127C127C127C127C127CF8
:10386000127C127C127C127C127C127CF17BF17B2C
:10387000F17BF17BF17BD173F173117CB06B5284DE
:10388000D494159DD494528497ADD494B3949394C6
:10389000117CAB52EC5A8F6B093A6E6B2D636E6BD9
:1038A0006E6B728C38BEF8BDB7B5D8B5B8B577AD0C
:1038B00036A5F59C738CD49472847284EF6BCF63BD
:1038C0002C4BCA42A93A472A4832CA42EB4A2D5BDE
:1038D0006E634E6B8F73907BB07BB07BB07BD0738D
:1038E000D073D073D073AF738F6B8F6BAF6BD06BA4
:1038F000F06BF06BEF6BF06BF073F0731174F17BA6
:10390000117C117CF17BF17B127C127C127C127C8D
:10391000127C127C127C127C127C127C127CF17B59
:10392000F17BF17BF17BF17BF17BF17BF17B117C16
:10393000F17BF17BF17BF17BF17B127C127C127CC1
:10394000127C127C127C127C127C127C127C127C07
:10395000127C127C127C127C127C127C127C127CF7
:10396000127C127C127C127C127C127C127C127CE7
:10397000127C127C127C127C127C127C127C127CD7
:10398000127C127C127C127C127C127C127C127CC7
:10399000127C127C127C127C127C127C127C127CB7
:1039A000127C127C127C127C127C127C127C127CA7
:1039B000127C127C127C127C127C127C127C127C97
:1039C000127C127C127C127C127C127C127C127C87
:1039D000127CF17BF17BF17BF17BF17BD173D173B5
:1039E000D073B07352848F6B093AED5A2942094261
:1039F0002D63EC5A8729E839AF7318BEDCD6BBD6E5
:103A0000D8BD18BE59C659C639C6B394728C9ACE61
:103A100039C65AC63AC6F9BD77ADD49CB394728400
:103A2000517CD28CCE63C619E51946226622E83253
:103A3000293BC832472A893AEC522D636F736F7B5A
:103A4000907B707B907BB07BAF738F738E6B4E637C
:103A50004D5B6D5BAE63CF630F640F6C0F64EF6BF8
:103A6000EF63CF6BCF6BD073F073F17B117C117C64
:103A7000117C117C117C117C117C117C117C327CBD
:103A800032843284117C117C117C327C327C317C1A
:103A9000117CF17BF17BF17BF17BF17BF17BF17BA5
:103AA000F17BF17B127C127CF27BF27B127C127C2C
:103AB000127C127C127C127C127C127C127C127C96
:103AC000127C127C127C127C127C127C127C127C86
:103AD000127C127C127C127C127C127C127C127C76
:103AE000127C127C127C127C127C127C127C127C66
:103AF000127C127C127C127C127C127C127C127C56
:103B0000127C127C127C127C127C127C127C127C45
:103B1000127C127C127C127C127C127C127C127C35
:103B2000127C127C127C127C127C127C127C127C25
:103B3000127C127C127C127C127CF17BF17BF17B7B
:103B4000F17BF17BF173F173F17BD0730D5BC831C5
:103B5000938C318418BE9ACE35A50D5B107CFCDEAB
:103B60001DE7FCDEBBD63DE7BFF73DE7BBD67ACE0F
:103B70009ACE5ACE0C5BF8BD1DE79BD67ACE7BD68B
:103B800019C636A5738CB394D38C5074C519E51936
:103B9000E9328A430B4C4C542C4CEC53AB4B883AD7
:103BA000693A6E6B2E6B2E732F7B2F7B4E734F7388
:103BB0004E732E6B4D632C5B2C536D5BCD5BEE63B4
:103BC0002F642F642F642F640F640F6C0F6CF073DD
:103BD0001074117C317C317C328452845284528442
:103BE000528452847284938C938C938C728452840A
:103BF0007384938C938C7284327C117CF17BF17B87
:103C0000F17BF17BF17BF17BF17BF17B127C127C10
:103C1000F27BF27B127C127C127C127C127C127C76
:103C2000127C127C127C127C127C127C127C127C24
:103C3000127C127C127C127C127C127C127C127C14
:103C4000127C127C127C127C127C127C127C127C04
:103C5000127C127C127C127C127C127C127C127CF4
:103C6000127C127C127C127C127C127C127C127CE4
:103C7000127C127C127C127C127C127C127C127CD4
:103C8000127C127C127C127C127C127C127C127CC4
:103C9000127C127C127C127C127C127C127C127CB4
:103CA000F17BF17BF17BF17BF17BF17B127CD173BA
:103CB00032844E63C83136A5DCD6FDDEBBD6F8BDF6
:103CC0008F73AF73BFF79FF7BFF79FF7FFFF3DE716
:103CD0007ACEFFFFDFF7FCDE59C6BAD6928C2D6391
:103CE000928CF49CF8BD97B557ADB8B5F4944D5B84
:103CF000CE632B4B22016722E832693BEA3B8B4CB7
:103D00000A440B4C0C5CA832E7314D6BEC62ED6A57
:103D1000ED72EE72ED72ED72ED6ACC5ACB52AA42A0
:103D2000893A893A88328832672A672AC932E93A59
:103D30002B436C53CE63EF6B3074317C517C5284D7
:103D400072847284728C938C938C938CF494159DF2
:103D5000159DF494B38C938CB38CD494D494B38C7D
:103D60005284117CF17BF17BF17BF17BF17BF17B68
:103D7000F17BF17B127C127CF27BF27B127C127C59
:103D8000127C127C127C127C127C127C127C127CC3
:103D9000127C127C127C127C127C127C127C127CB3
:103DA000127C127C127C127C127C127C127C127CA3
:103DB000127C127C127C127C127C127C127C127C93
:103DC000127C127C127C127C127C127C127C127C83
:103DD000127C127C127C127C127C127C127C127C73
:103DE000127C127C127C127C127C127C127C127C63
:103DF000127C127C127C127C127C127C127C127C53
:103E0000127C127C127C127C127CF17BF17BF17BA8
:103E1000F17BF17BD173128432842A4252845EE7B3
:103E2000B7B5B3949294728C1084BEF7DFFFBEF7DF
:103E3000FFFFFFFFBEF7AA52C318E31892947DEF6D
:103E4000FBDEBBD68A520C6355A5AF73EF7B1084A3
:103E50008E73CC5ACF7B728C349DF7AD8832E511CE
:103E60000833A93B0A3C4B444B4C0B4C2D5C67324E
:103E7000073A2C736B6A4B724B724B726B6A8B6294
:103E80008B5AAB526A4245196411E51966228622A3
:103E9000A62AC732283B08338622C82AC82A872A7E
:103EA000A8326B53707C92849284F494D394F594EA
:103EB000F494F59C36A557A597AD77AD56A535A5D5
:103EC00055A5B7B5B7B576AD35A5D494117CF17BC2
:103ED000117CF173F17BF17BF17B127CF27BF17B46
:103EE000F17BF27BF17BF17BF17B127C127C127C0B
:103EF000127C127C127C127C127C127C127C127C52
:103F0000127C127C127C127C127C127C127C127C41
:103F1000127C127C127C127C127C127C127C127C31
:103F2000127C127C127C127C127C127C127C127C21
:103F3000127C127C127C127C127C127C127C127C11
:103F4000127C127C127C127C127C127C127C127C01
:103F5000127C127C127C127C127C127C127C127CF1
:103F6000127C127C127C127C127C127C127CF17B03
:103F7000F17BF17BF17BF17BF17BF1731284906B30
:103F80005284C831ED5AD4949BCE19BEDBD6DFFFE4
:103F9000FFFFDFFFBEF7FFFF9EF7FFFFBEF73CE727
:103FA000F7BDAE73108479CEDFF7BFF74E6BB7B5B0
:103FB0005DEFB7B555ADBBD6FCDEF8BD7ACEDCD62D
:103FC00059C61BD79074C411E8326933EA3B2B44BD
:103FD000EA3B6D5CEC5B8419694A295209620A6A02
:103FE0000A6AEA61E9590A5A2A52294AA310C20800
:103FF0000622C82A693BCA43EA4BEB4BEA4B0B4CFF
:104000008D542C4C2C4C2D548A4BA83A6C5B9284CA
:104010007184559D559DD8B5B7ADB8B5B8B5B8B58F
:10402000D8BD5AC67ACE9BCE39BEF49CF49C15A559
:10403000F07B6F6B159D738CD073D173F17BF17333
:10404000F17BF17B127CF17BF17BF27BF17BF17BED
:10405000F17B127C127C127C127C127C127C127C12
:10406000127C127C127C127C127C127C127C127CE0
:10407000127C127C127C127C127C127C127C127CD0
:10408000127C127C127C127C127C127C127C127CC0
:10409000127C127C127C127C127C127C127C127CB0
:1040A000127C127C127C127C127C127C127C127CA0
:1040B000127C127C127C127C127C127C127C127C90
:1040C000127C127C127C127C127C127C127C127C80
:1040D000127C127CF17BF17BF17BF17BF17BF17B3C
:1040E000F17BF173D17B3284F17BCC520519E4185A
:1040F000AC527BCE39C69AD6FCDE9EF7FFFFFFFF9F
:10410000FFFFBEF7FFFFFFFFBEF7FFFFFFFFBEF79A
:10411000DFFFFFFF72940D633DE78E73A2108631BF
:10412000F7BD7EEF1DE7FCDE9ACE38BE58B6A4116F
:10413000872A4933AA3B0B44EB432D5C883A642120
:10414000A639E8498749875167496749A851C85145
:104150006641E4280000C100662A49330A446B4CDA
:104160004A444B448C544B4C4C4C8D544C544D5CF9
:104170006E64294BA942F3947184B28C56A5159DA7
:104180005284F07B2E633284B8B597B535A5D073D1
:104190000C5B6E6BAF73F07BD073B394AF73B07383
:1041A000F17BF173F173F173F17BF17BF17BF17BC7
:1041B000F17BF17BF17BF17B127C127C127C127C17
:1041C000127C127C127C127C127C127C127C127C7F
:1041D000127C127C127C127C127C127C127C127C6F
:1041E000127C127C127C127C127C127C127C127C5F
:1041F000127C127C127C127C127C127C127C127C4F
:10420000127C127C127C127C127C127C127C127C3E
:10421000127C127C127C127C127C127C127C127C2E
:10422000127C127C127C127C127C127C127C127C1E
:10423000127C127C127C127C127C127C127C127C0E
:10424000F17BF17BF17BF17BF17BF17BF17BF17B0E
:1042500032842E63F17B19BEB7B5D8BD7ACE7ACE43
:1042600059CE9ACE55ADDBD6FFFFFFFFDFFFBEF77D
:10427000FFFFFFFFDFFFDFFFFFFFDFFFFFFFF8C5EF
:10428000BBD6FFFFBAD6B294D7BDFFFFBFFF9EF7E4
:104290003DDF59BEBAC60A43E5194A3B8A3BEB43A8
:1042A0004D5C2A430211C631A63965396639663933
:1042B0004639453966394539A32000080000A10870
:1042C000462A49332B448C4C8B4C8C544B4C6C54AD
:1042D0004C4C4D544D542D5CA732A83A349D517C22
:1042E00069426A426E6B117C5284117CD0734E63BA
:1042F0004A4A8B4AEC5A8E6BD7B57ACEBBD61DE7AD
:104300001DE739C67ACE32848F6BF17B117CF17355
:10431000F173F17BF17BF17BF17B127CF17B127C01
:10432000127C127C127C127C127C127C127C127C1D
:10433000127C127C127C127C127C127C127C127C0D
:10434000127C127C127C127C127C127C127C127CFD
:10435000127C127C127C127C127C127C127C127CED
:10436000127C127C127C127C127C127C127C127CDD
:10437000127C127C127C127C127C127C127C127CCD
:10438000127C127C127C127C127C127C127C127CBD
:10439000127C127C127C127C127C127C127C127CAD
:1043A000127C127C127C127C127C127CF17BF17BE1
:1043B000F17BF17BF17BD173738C6F6B4A425AC6F0
:1043C0009BCE9BD6F8BD5ACEB7B576ADAB52821018
:1043D00039C6FFFFFFFFFFFFFFFF9EF7BEF7FFFF9E
:1043E000DFFFFFFFBFF7FFFFFFFF9EF7FFFFFFFFAE
:1043F000DFFFFFFFFFFFBFF7BFF7BACEBAC6507CA3
:104400008411C9324A3B8A43C832C41964198008EE
:1044100020086110411061186218611041102008D5
:104420000000000000008108462A293B2B4C6C4C00
:104430004C4C4C542C548E642D5C4F640A43E62142
:10444000A94271840C5B4942359D39C6FCDEFCDE15
:10445000FCDEDCDEBBD6BBD659C6DBD61CDF3CE7B8
:10446000FBDEBBD69AD6D49C6E6BBBD69ACE39C631
:10447000EC52B073117C117CF173F17B127CF17BF7
:10448000F17B127C127C127C127C127C127C127CDE
:10449000127C127C127C127C127C127C127C127CAC
:1044A000127C127C127C127C127C127C127C127C9C
:1044B000127C127C127C127C127C127C127C127C8C
:1044C000127C127C127C127C127C127C127C127C7C
:1044D000127C127C127C127C127C127C127C127C6C
:1044E000127C127C127C127C127C127C127C127C5C
:1044F000127C127C127C127C127C127C127C127C4C
:10450000127C127C127C127C127C127C127C127C3B
:10451000127C127CF17BF17BF17BF17BF17BF17BF7
:10452000F17BF17B8B4A97ADAF73B394BCD6BCD60D
:1045300076ADF07B1CDFAB526A4AFFFFBEF7FFFF90
:10454000DFFFFFFFFFFFFFFFBEF7FFFFFFFFDFFF04
:10455000FFFFFFFFFFFFBEF7FFFFFBE676B5EC6254
:104560008B52DBD69ACEF7ADA519A832C82A86227F
:10457000A72A8B4B6B5343192000401000100018E2
:1045800000180018201000082000400000008108DA
:10459000272A293BEB4B2C4CAA430833CC532A4BFC
:1045A000C94265196519493A8A4AE8398E6B59C674
:1045B0009ACE1CDF518439C69EF73DEF7EEF3DEF6A
:1045C00059C618BE5DE73CE7DFF71CE74529000048
:1045D00008427EEFDBD6DCD68F6B4A42117C117C21
:1045E000F173F173127C127C127C127C127C127CAF
:1045F000127C127C127C127C127C127C127C127C4B
:10460000127C127C127C127C127C127C127C127C3A
:10461000127C127C127C127C127C127C127C127C2A
:10462000127C127C127C127C127C127C127C127C1A
:10463000127C127C127C127C127C127C127C127C0A
:10464000127C127C127C127C127C127C127C127CFA
:10465000127C127C127C127C127C127C127C127CEA
:10466000127C127C127C127C127C127C127C127CDA
:10467000127C127C127C127C127C127CF17BF17B0E
:10468000F17BF17B127C127CF17B117C8F6BF17BD7
:10469000B3946208294215A5BBD6F07B9294FCDE48
:1046A000F49C7EEFDFFFFFFFFFFF5DEF55ADBADE4D
:1046B000DFFFBFFFFFFFBFFFDFFFDFFFFEFFFFFFEB
:1046C000FFFF30840000C420A73135A5BBD69ACEA9
:1046D0000732C519693BCB43EB43EB4B6A43C842F6
:1046E000C118612062382138013822384230212037
:1046F0000008000000006000E52109330B4C6C54F9
:10470000CB4B083BA41960002000200020000000D3
:104710000D6319C67ACE5ACE7EEF8E7362089AD692
:10472000DFFFFFFF5DEF6A4A8210E8399EEFFFFF6F
:10473000BEF7FFFF928C10845DEFFFFF7EEFFCDE83
:10474000F8B58B4A117C117CF173F173F17BF17B2D
:10475000127C127C127C127C127C127C127C127CE9
:10476000127C127C127C127C127C127C127C127CD9
:10477000127C127C127C127C127C127C127C127CC9
:10478000127C127C127C127C127C127C127C127CB9
:10479000127C127C127C127C127C127C127C127CA9
:1047A000127C127C127C127C127C127C127C127C99
:1047B000127C127C127C127C127C127C127C127C89
:1047C000127C127C127C127C127C127C127C127C79
:1047D000127C127C127C127C127C127C127C127C69
:1047E000127CF17BF17BF17BF17BF17BF17BD17B67
:1047F000117CF17B117C0D5B318497AD4E6B77ADF5
:104800007ACE9BD6CF73B7B51CE75DEFDFFFDFFF36
:10481000FFFF7EF7AA5221084108F0837EF7FFFFD1
:10482000FFFFFFFFFEFFDEFFFFFFBEF71CE79FF766
:10483000DFFF5EEF59C6FBD6AE6B23094933682B09
:104840000B44CA3B8A3B6A4BE53940204240025048
:1048500001500250024001300018000020004000CA
:10486000C4192833EA434C4C4C5C2C64094B60005F
:104870002000200041008E6BDBDE59CE9AD6BFF7B8
:10488000CF73210035A5FFFFBEF7DFFF79CE518C36
:1048900018C65DEFFFFFDFFFBFF7FFFFFFFFFFFF62
:1048A000FFFF9FF7FFFFDFF7F4946B42117C117C51
:1048B000F173F173F17BF17BF17B127C127C127C42
:1048C000127C127C127C127C127C127C127C127C78
:1048D000127C127C127C127C127C127C127C127C68
:1048E000127C127C127C127C127C127C127C127C58
:1048F000127C127C127C127C127C127C127C127C48
:10490000127C127C127C127C127C127C127C127C37
:10491000127C127C127C127C127C127C127C127C27
:10492000127C127C127C127C127C127C127C127C17
:10493000127C127C127C127C127C127C127C127C07
:10494000127C127CF27BF27BF27BF27BF27BF27BBD
:10495000127C127C127CF17BF17B117C117CD07378
:104960006F6B2E5B117CF17B3284B4944A42CC5243
:104970007ACEFCDEFFFFDFFFBEF7FFFFBEF775ADAF
:104980003084D39C7DEFDEFFFFFFDEFFFFFFFFFFE4
:10499000FFFFFFFFFFFFFFFFDFF7BEF7BAD6BAD674
:1049A0008E6BA100292B492BCA43CA4BCA43AA4389
:1049B0000943443142404360226021600050424834
:1049C0000010000000004000A419E832EB436C4CDA
:1049D0008C4C0B4C8A4B0109400000003084BAD645
:1049E000BAD63CE79EEF9DEFD39CD39CDFFFDFFF61
:1049F0007EEFDBDE3DEFFFFFDFFFFFFFFFFFFFFF8F
:104A0000FFFFFFFFBEF7FFFFFFFFFFFF96ADDFF7E2
:104A10008F6B4A42317C117CF173F1731174127CFB
:104A2000127CF17B127C127C127C127C127C127C38
:104A3000127C127C127C127C127C127C127C127C06
:104A4000127C127C127C127C127C127C127C127CF6
:104A5000127C127C127C127C127C127C127C127CE6
:104A6000127C127C127C127C127C127C127C127CD6
:104A7000127C127C127C127C127C127C127C127CC6
:104A8000127C127C127C127C127C127C127C127CB6
:104A9000127C127C127C127C127C127C127C127CA6
:104AA000127C127C127C127C127C127CF27BF27BD8
:104AB000F27BF27BF27BF27B127C127CF17BF17B4E
:104AC000F17BF17B117CF17BD173D0732E63ED5AB6
:104AD0006B4A0D5BE8398F6B5ACE9BD65DEFFFFFBB
:104AE000FFFFDFFFFFFFFFFFBEF7FFFFFFFFFFFF3F
:104AF000FFFFBEFF5DEF9AD6BEF7DFFFBEF7BEF742
:104B0000FFFF5DE7F8BDFBDEAE6B60008722493337
:104B1000AA43EA4BEA4BCA4B8A4B6742623883602E
:104B20002268227022684250001800000000200015
:104B30008419E832EB436C4C6C4C0B4C8A43E521F6
:104B40002000652959CE1CE7BBD61CDFFFFFDEF72E
:104B5000FFFFFFFFDFFF7DEFDBD6F8BD14A51CE7ED
:104B6000BFF7FFFF9EF79EF7DBDED7BDDEF79EF7B0
:104B7000DBD60C5B6E6B97ADA731117C117CF17BA2
:104B8000F173F1731174127C127CF17B127C127C34
:104B9000127C127C127C127C127C127C127C127CA5
:104BA000127C127C127C127C127C127C127C127C95
:104BB000127C127C127C127C127C127C127C127C85
:104BC000127C127C127C127C127C127C127C127C75
:104BD000127C127C127C127C127C127C127C127C65
:104BE000127C127C127C127C127C127C127C127C55
:104BF000127C127C127C127C127C127C127C127C45
:104C0000127C127C127C127C127C127C127C127C34
:104C1000127C127CF27BF27BF27BF27B127C127CA8
:104C2000127C127CF17B127C127C127CF17B117C59
:104C3000117C127C3284538C3284117C117CED5AAD
:104C4000B7B5BBD65DEF9FF7DFFFDFFFBEF79EF77F
:104C5000FFFFFFFFBEFFDFFFF7BDEB5A6529E73916
:104C6000DBDEFFFFDFFFFFFFDFF7F39CF39C5DE779
:104C70008E6B4000E5192933A93B0A440A4CEA4BE4
:104C8000EB436A4B8539A3586378238802784368DD
:104C900000280008000020006311C832EA434C4C91
:104CA0006C4C2B4CCB4B662A20000B5BFBDE96B585
:104CB000E4183084FFFFDFF7BEF7BEF79EF71CDF76
:104CC000BBD64D63F8BD9EF7DFF7FFFF1CE7AB5285
:104CD00082104D63DFFF3DE78A52107C39C6872979
:104CE000AF73D073F173F17BF173F173F17BF17BEF
:104CF000127C127C127C127C127C127C127C127C44
:104D0000127C127C127C127C127C127C127C127C33
:104D1000127C127C127C127C127C127C127C127C23
:104D2000127C127C127C127C127C127C127C127C13
:104D3000127C127C127C127C127C127C127C127C03
:104D4000127C127C127C127C127C127C127C127CF3
:104D5000127C127C127C127C127C127C127C127CE3
:104D6000127C127C127C127C127C127C127C127CD3
:104D7000127C127C127C127C127C127C127C127CC3
:104D8000127C127C127C127C127C127C127C127CB3
:104D9000127C127CF17BF17BF17BF17BD17BD173B7
:104DA000F17BF17B117C6F6B0D5B39C69ACEBFF73F
:104DB000DFFFFFFFDFFFFFFFFFFFBEF7FFFFFFFF8C
:104DC0003184620825218E73FBDEDFFFDFFFB6B57D
:104DD000518451843CE7DBD68E6B20002311E932ED
:104DE0006933EA3B0A4C0B4C2B3CCB3BE94AE34092
:104DF000837844900280847801300008000020000D
:104E00004311C732CA434C4C6C4C4C4CCB4B2943DE
:104E1000A100D2941CDF2842210039C6FFFFBEF753
:104E2000DFFFFFFF5DEFFCDE518C56ADDFFF1CE7BF
:104E3000BBD61CDF7EEF149DB7B5FFFF9EEF1CE7CE
:104E40003DE75AC68B4A0D635284F17BF173F17BC7
:104E5000F17B127CF17BF17BF17B127C127C127C6A
:104E6000127C127C127C127C127C127C127C127CD2
:104E7000127C127C127C127C127C127C127C127CC2
:104E8000127C127C127C127C127C127C127C127CB2
:104E9000127C127C127C127C127C127C127C127CA2
:104EA000127C127C127C127C127C127C127C127C92
:104EB000127C127C127C127C127C127C127C127C82
:104EC000127C127C127C127C127C127C127C127C72
:104ED000127C127C127C127C127C127C127C127C62
:104EE000127C127C127C127C127C127C127C127C52
:104EF000127C127CF17BF17BF17BF17BF17BF17B0E
:104F0000F17BF17B127C127CD173127CB073738CB9
:104F1000093A32843DE7FCDE7EEF3DE718C6DFFF4D
:104F2000FFFFFFFFFFFF9EF7FFFFBFF7DFFFFFFF62
:104F30007ACE718CF49C08422D63DFFF3CE7DBDE08
:104F4000AE73000081006732482BC93BEA4B0B4C23
:104F50004B3C2B3C8A4BC541625843800388A58853
:104F600002380010000020002209A732AA434C4C4E
:104F70006C4C4C4CCB4BE832C52137BEBAD6A6316F
:104F80002942FFFFDFFFFFFFDFF79AD63DE7D7B5E6
:104F9000107CF49CAB526629159D39C618BE19C603
:104FA00059C659C6DCD696AD4E63E9394E63328494
:104FB000B073F17BF173F17B127C127C127CF17B7C
:104FC000117C117C127C127C127C127C127C127C73
:104FD000127C127C127C127C127C127C127C127C61
:104FE000127C127C127C127C127C127C127C127C51
:104FF000127C127C127C127C127C127C127C127C41
:10500000127C127C127C127C127C127C127C127C30
:10501000127C127C127C127C127C127C127C127C20
:10502000127C127C127C127C127C127C127C127C10
:10503000127C127C127C127C127C127C127C127C00
:10504000127C127C127C127C127C127C117C117CF2
:10505000117C117C127C127C127C127C127C127CE2
:10506000F17BF17BF27BF27B127CF27BD173F27BE2
:10507000127CF17BF17B127C4E634E63159D5ACE00
:10508000DCDEFCDE0842A7312C63F39C3DE7BFF772
:105090007EEF9EF7BFF796B54D6BAB52B2947DEFA6
:1050A000BEF7FFFFBEF75DEF0C6300000000062AAD
:1050B0004933C933EA430B4C4B444C44CA3B094B7C
:1050C000E240826884908580024000180000200041
:1050D0002209873289434C4C6C4C4C4C2C4C6A4313
:1050E000A41133953CDF6E6B96B5FFFFDFFFFFFF2A
:1050F0001CDFC739BBD6518CD8B5B7B54E63938C7E
:1051000019BEDCD6938C462125210D5B938CE939A1
:10511000AC521284117CF17B127CF17BF17B127C0E
:10512000127C127C127CF17BF17B117C127C127C54
:10513000127C127C127C127C127C127C127C127CFF
:10514000127C127C127C127C127C127C127C127CEF
:10515000127C127C127C127C127C127C127C127CDF
:10516000127C127C127C127C127C127C127C127CCF
:10517000127C127C127C127C127C127C127C127CBF
:10518000127C127C127C127C127C127C127C127CAF
:10519000127C127C127C127C127C127C127C127C9F
:1051A000127C127C127C127C127C127C127C127C8F
:1051B000127C127C117C117C117C117C117C117C85
:1051C000127C127C127C127CF27BF27BF27BF27BF3
:1051D000F27BF27B3384B173127CD173D17332844E
:1051E000F17BF17BC8314A4239C6DCDE18C6CB5AA6
:1051F000294296B51CDF1CDFBBD6F8BDAF73A731C3
:1052000076AD3DE7DFFFFFFFFFFF96B576AD3CE7EC
:105210006529000000006419282BA933EA430B4CD0
:105220002B4C4C440B3CAA4B2542E248A480858081
:1052300022400010000020000209872A693B4C54DC
:105240006C4C4C4CEB430C548309917C1BD7F8BD40
:105250001CE7DFFFBEF7DFFFEF7B8631FCDE4A4A4B
:105260006E6BB394B394F07B8F6B5284EC52293AFB
:105270006B424A426B4A8F6B12841284D173F17B6A
:10528000D17BF27BF27BF27B127C127C127C127C53
:10529000117C117C127C127C127C127C127C127CA0
:1052A000127C127C127C127C127C127C127C127C8E
:1052B000127C127C127C127C127C127C127C127C7E
:1052C000127C127C127C127C127C127C127C127C6E
:1052D000127C127C127C127C127C127C127C127C5E
:1052E000127C127C127C127C127C127C127C127C4E
:1052F000127C127C127C127C127C127C127C127C3E
:10530000127C127C127C127C127C127C127C127C2D
:10531000127C127C127C127C127C127C117C117C1F
:10532000117C117C117C117C127C127CF17BF17B55
:10533000F27B127CF27BF27BF27BF27BF27BF27BE4
:10534000F27BF27B327CD173F17B117C117C4E635A
:105350006E6B4D6314A5DBDE39C676ADB394318434
:105360002D63CB5AD07B083AB394DBDE5DE7DFF7E1
:10537000FFFFC7318A523CE7242100000000E20809
:10538000A722682BEA430B4C0B4C2C4C6C44A933E2
:10539000695322414268A580844800100000200023
:1053A0000209662A493B4C546C4C4C4C2C4C6A43C9
:1053B0002622AD5BBACE7ACEFCDE9EF7DFFFBEF7CB
:1053C0000842F49C7ACE4A4A0C5BAB52AC520D5B5D
:1053D0002E63CC520D5BD073B06B327C3284127C66
:1053E000117CB073127C127CF17BF27BF27BF27B3E
:1053F000F17BF17B117C117C117C117C127C127C85
:10540000127C127C127C127C127C127C127C127C2C
:10541000127C127C127C127C127C127C127C127C1C
:10542000127C127C127C127C127C127C127C127C0C
:10543000127C127C127C127C127C127C127C127CFC
:10544000127C127C127C127C127C127C127C127CEC
:10545000127C127C127C127C127C127C127C127CDC
:10546000127C127C127C127C127C127C127C127CCC
:10547000127C127C127C127C127C127C127C127CBC
:10548000127C127C127C127C127C127C127C127CAC
:10549000127C127C127C127C127C127C127C127C9C
:1054A000127C127CF27BF27BF17BF17BF17BF17B56
:1054B000F17BF17BD073117CF0734E63CC52EC52D4
:1054C0000D5BED520D5BB06B906BF17B938C6B4A77
:1054D000D07B5EEFFFFFFFFFBFF72942C3101CDF49
:1054E000C7310000600060004622293BAA430B4CF4
:1054F0000B542B544B3C6B44893BC742C23825614B
:1055000082400018000820000209662A483B2B4C04
:105510006B4C6B4C4C4CAA43862AC93ADACE38C63F
:105520003DE7DFFFBFF75DE7B7B5BFF7F49CEC5A87
:10553000738C327C117C127C327C3284327C127C03
:10554000F17BF17BF17BF17BF17BF17BF17BF17BFB
:10555000F17BF17B127C127C127C127C127C127C1F
:10556000127C127C127C127C127C127C127C127CCB
:10557000127C127C127C127C127C127C127C127CBB
:10558000127C127C127C127C127C127C127C127CAB
:10559000127C127C127C127C127C127C127C127C9B
:1055A000127C127C127C127C127C127C127C127C8B
:1055B000127C127C127C127C127C127C127C127C7B
:1055C000127C127C127C127C127C127C127C127C6B
:1055D000127C127C127C127C127C127C127C127C5B
:1055E000127C127C127C127C127C127C127C127C4B
:1055F000127C127C127C127C127C127C127C127C3B
:10560000127C127C127C127C127C127CF27BF27B6C
:10561000F17BF17BF17BF17BF17BF17BF17B117C09
:10562000327C117CF17B117C327C3284127C127CC6
:10563000F17BF17B31840D5B4E6397ADAF73BFF7A8
:10564000FFFF2D63A631BBD66A4A00004000400030
:10565000C419E832893BEA430B542B544B444B4466
:10566000EA3B494BC541C3402449001800000000F3
:105670000209662A483B2B4C6B4C8C4C4B4CCB4361
:10568000E832E52178BEDBD6728C5ACEFFFFBFF739
:10569000BFF7FCDE0C5B4E63327CD173F173F173A8
:1056A000F17BF17BF17BF17BF17BF17BF17BF17B9A
:1056B000F17BF17BF17BF17BF17BF17B127C127C46
:1056C000127C127C127C127C127C127C127C127C6A
:1056D000127C127C127C127C127C127C127C127C5A
:1056E000127C127C127C127C127C127C127C127C4A
:1056F000127C127C127C127C127C127C127C127C3A
:10570000127C127C127C127C127C127C127C127C29
:10571000127C127C127C127C127C127C127C127C19
:10572000127C127C127C127C127C127C127C127C09
:10573000127C127C127C127C127C127C127C127CF9
:10574000127C127C127C127C127C127C127C127CE9
:10575000127C127C127C127C127C127C127C127CD9
:10576000127C127C127C127C127C127C127C127CC9
:10577000127C127CF27BF27B127C127CF17BF17B3F
:10578000F17BF17BF173D173D073F17BF17BF1731A
:10579000F073F173127CD173117CF17B117C4E6339
:1057A0006E6BD07B000079CEFFFF79CE9AD6BEF724
:1057B000CF7B2000200020002209872A4933CA3BE2
:1057C0000B4C2B544B4C4B4C2B44EA4BE84A432993
:1057D00024410018000000000209662A483B2B4CB7
:1057E0006B4C8C4C4B4CCB430833E521D6AD9ACE59
:1057F000A3101184FFFF7EEF7DEFFCDE0D5B4E6397
:10580000327CF17BF173F173F173F173F173F17B1E
:10581000F17BF17BF17BF17BF17BF17BF17BF17B28
:10582000F17BF17B127C127C127C127C127C127C4C
:10583000127C127C127C127C127C127C127C127CF8
:10584000127C127C127C127C127C127C127C127CE8
:10585000127C127C127C127C127C127C127C127CD8
:10586000127C127C127C127C127C127C127C127CC8
:10587000127C127C127C127C127C127C127C127CB8
:10588000127C127C127C127C127C127C127C127CA8
:10589000127C127C127C127C127C127C127C127C98
:1058A000127C127C127C127C127C127C127C127C88
:1058B000127C127C127C127C127C127C127C127C78
:1058C000127C127C127C127C127C127C127C127C68
:1058D000127C127C127C127C127C127C127C127C58
:1058E000127C127C127C127C127C127C327CF17B4A
:1058F000F173117C117CF17BF173F17BD173F17346
:10590000117CD1735284AB4AF073AF730000F07B0B
:10591000FFFFBFF7DFFF7DEFCF7B00000008000037
:105920008100262A0833AA3B0B4C2B542B544B5492
:105930006B440A3CAA3B6632C120001000002000E4
:105940002209662A483B2B4C6B4C6B4C6C4CEB4B46
:10595000493B8411F6ADD394000055ADFFFFDFF74E
:105960005DE718BE0D5BF17BF17BD173F17BF17BC1
:10597000F27BF27B127CF17BF17BF17BF17BF17BA3
:10598000F17BF17BF17BF17BF17BF17B127C127C73
:10599000127C127C127C127C127C127C127C127C97
:1059A000127C127C127C127C127C127C127C127C87
:1059B000127C127C127C127C127C127C127C127C77
:1059C000127C127C127C127C127C127C127C127C67
:1059D000127C127C127C127C127C127C127C127C57
:1059E000127C127C127C127C127C127C127C127C47
:1059F000127C127C127C127C127C127C127C127C37
:105A0000127C127C127C127C127C127C127C127C26
:105A1000127C127C127C127C127C127C127C127C16
:105A2000127C127C127C127C127C127C127C127C06
:105A3000127C127C127C127C127C127C127C127CF6
:105A4000127C127C127C127C127C127C127C127CE6
:105A5000127C127C127CF17BF17BF17BF17B117C5F
:105A6000F17BF17BF17B127C117CD07352844A4232
:105A7000518496AD083AD39CDFFF9EF77EF75DF721
:105A80008E7B4210000800082000C521C82A8933F7
:105A90000A442B4C2B544C544B4C2B3CEA33693B63
:105AA00002110000200020002211872A483B2B4CC5
:105AB0006B4C6B4C4C4C0C4C4A3BA419917CF7B58D
:105AC000F07B3DE7FFFF9EEF3DE7B3940D5B117C5C
:105AD000F173F17BF173F273F27BF27B127CF17B59
